:020000040800F2
:1000000000200020D5000008DD000008DF00000807
:1000100000000000000000000000000000000000E0
:10002000000000000000000000000000E1000008E7
:100030000000000000000000E30000083104000898
:10004000E7000008E7000008E7000008E7000008F4
:10005000E7000008E7000008E7000008E7000008E4
:1000600000000000E7000008E7000008E7000008C3
:10007000E7000008E7000008E7000008E7000008C4
:10008000E7000008E7000008E7000008E7000008B4
:1000900000000000E7000008E7000008E700000893
:1000A000E7000008E7000008E7000008BD040008BA
:1000B00011050008E7000008000000000000000033
:1000C0000348854600F07AF900480047E91B00081C
:1000D000002000200448804704480047FEE7FEE770
:1000E000FEE7FEE7FEE7FEE7B9040008C1000008EE
:1000F00010B5431A934209D28318881803E0401EB2
:1001000001785B1E1970521EF9D210BD03460B43D5
:100110009B0703D009E008C9121F08C0042AFAD2BD
:1001200003E00B780370401C491C521EF9D210BD2D
:10013000D2B201E00270401C491EFBD2704700227F
:10014000F6E710B513460A4604461946FFF7F0FFD6
:10015000204610BDF8B502464A40D40F42004B007D
:1001600052085B089A4202D20246084611464A00EB
:1001700023D0C30D4A00DDB2120EAD1A202D35DAA0
:1001800049020126490AF6058A19002C00D052427C
:1001900020214F1B1146B9402A411018C20D9A4226
:1001A00021D0002C17D0012D08DCDA05801AD20FDF
:1001B0008019D207DBB200F0C8F8F8BDDA05801A62
:1001C000012340001B06C01880185A428018CA0F2D
:1001D0001043490007E04908C2071143DA05801AB5
:1001E00080194008801800F0A8F8F8BD61000122CD
:1001F000511A001BF7E70122D2075140AAE701225A
:10020000D2075040A6E7024670B54A40D30FDB073D
:1002100040002DD04A002AD0010E140E0002120216
:100220000919400A520A8418E50104465443000A99
:10023000120A2E045043A4194219200CC543AA18CF
:10024000120C0125AD03521C521912047F392404EB
:1002500000D0521C104301D44000491EC2B20C060B
:10026000C0092018401C4008802A02D003E000206A
:1002700070BD40084000002900DA0020184370BD1E
:100280000122D207002800DB101A002900DB511AD6
:10029000814201D9012070470020704770B50446A3
:1002A000002903D000202022012310E0002801D0E3
:1002B0000020C043C046C0460DE02546D5408D42D3
:1002C00005D30D469540641B1D46954040191546C3
:1002D000521E002DF1DC214670BDF0B51FB406465C
:1002E000002082B005464024019100901BE0019956
:1002F00022460F46304600F089F8049A059B801A82
:10030000994110D310461946224600F06FF8361A6C
:100310008F410197224601200021009F00F066F8DE
:1003200038184D4100902046641E0028DFDC019BF8
:1003300000982946324607B0F0BD002904DA401C77
:10034000490001D140084000704770B40024050CFA
:1003500005D11024000402D1002921D01124050E5A
:1003600001D100020834050F01D10001241D850FC1
:1003700001D18000A41C002801DB4000641C00297E
:1003800008D020252E1B0D46F540A14000D00121AC
:100390002943084301061B1B000ADB1D02D5002070
:1003A00070BC7047DB05181880180029F8DA401C6B
:1003B0004900F5D170BC4008400070471CB50948A1
:1003C00000900948019005460126009C05E0E3687D
:1003D00007CC33430C3C98471034AC42F7D3FFF7BB
:1003E00073FE0000C0290008E029000810B5202A8B
:1003F00004DB0146203A9140002010BD91402023AB
:100400009C1A0346E3401943904010BD10B5202AC2
:1004100004DB0846203AD040002110BD0B46D340F3
:10042000D0402024A21A91400843194610BD000074
:10043000BF480168491C01607047C04610B51A4C9E
:10044000A0688006400F411E184803291DD8C046E9
:100450007944097949008F441C011215E168E1686B
:100460004906490F491CFFF719FFE1684904490E85
:100470004843E168490F491CFFF710FF09E07D2060
:10048000000206E00120C00303E021688904490F4F
:10049000C84007490860A26892093C231340054AF6
:1004A000D258D040086010BD001002400024F40073
:1004B0000000002090280008704700001148C16922
:1004C0000A0701D00F2202628A0602D5426A924BC5
:1004D0005A7009060BD50168090608D58E49CA88E5
:1004E0000B899A4204D101688022914301607047D0
:1004F0000A89054B9A5C82620889401C034A0240C3
:100500000A81704700380140A8050020FF01000063
:1005100010B5724801680A0709D00F2343607E4B6B
:100520005C69641C5C61002A01D501221A7089068D
:100530001CD5826878484188C3685B1CC360491C2D
:10054000C9B28388994205D10169491C0161012121
:10055000017010BD43881A4CE254664A1268438801
:100560009B00184CE250BFF35F8F418010BDC04626
:10057000BFF34F8F034804490160BFF34F8F00BFA3
:10058000FDE7C0460CED00E00400FA0510B5624A34
:1005900093885488A34201D1002010BD9388084C51
:1005A000E35C037090888000064B18580860BFF326
:1005B0005F8F9088401CC0B29080012010BDC04663
:1005C000A8000020A8010020F0B587B0064600244E
:1005D000E043002E29D00D46002926D00690EFF3E7
:1005E000108072B6012105910A073A490A60BFF3EB
:1005F0004F8FBFF36F8F484B197800290BD1598863
:1006000004929A889142049A05D1344F3968344A49
:100610001142049A0DD0996A491C99622E490A60C8
:1006200080F310880698441E00E00446204607B078
:10063000F0BD2C49802202920A61402179602A494A
:10064000022201920A6180F31088284868432849F1
:10065000FFF724FE7D21C900401826490A68234679
:10066000AB420FD003933B681B0604D40B689B1A64
:100670008342F8D905E0039BF35CFB60039B5B1CA2
:10068000EEE7069C3B685B0604D40B689B1A83422A
:10069000F8D9069C144801990160F349049A386816
:1006A000800601D5B868FAE70F2078600D48029BF4
:1006B000036011480260FD480260002C05D0C86943
:1006C000401CC86105980870B0E78869401C8861C3
:1006D0000024ABE780E100E000E100E01C440040C2
:1006E0002F00010018040050180000508096980058
:1006F00040420F002400004080E200E0EFF3108150
:1007000072B6D94A1078002803D05388938000230A
:10071000137081F3108870470400002004490A68B0
:100720000B689B1A834201D200BFF9E77047C046AD
:10073000340A0020F0B58DB0C84F386E0C900124FB
:10074000E1053A6E0A433A66796B07200A90014345
:100750007963796B0520079006071221B161C048C3
:100760008022049282613268042306931A4308238C
:100770009A433260032508952A0233689343210285
:100780005A1832602A040368134303600268B54BA9
:100790001A40A3030B94D2180260E2480C9AC2627A
:1007A0003868099108433860A502B04B384629469D
:1007B0002A469847B8680A9CA043B8603846083073
:1007C000382100220C920290A84B9847E002396829
:1007D00081433960A648411CF86B03910843F863D4
:1007E000F86B08984102A34802688A430B9C610297
:1007F000511801601430059529460C9A9B4DA84765
:100800009D48016802231943079A914301600A99A0
:1008100001931A46A8472006396881433960650666
:10082000384629460C9A914B98479448F8607F20A7
:100830000002B9688143B9609148401C396801439E
:100840003960384629462A46884B9847089A002836
:1008500017D1B8680199084307998843B8603821CF
:100860001022029C204601F091FD00280CD0B868AF
:100870000A998843B86038210022204601F086FD9D
:10088000069A3420A7490A54FFF7D8FD7D4D286801
:100890000890F86B7C490143F963386C7B4901434C
:1008A0003964386C28687A49FFF7F8FC401E0B9AC7
:1008B000910788620C9CE043C8624A610C610A603F
:1008C0009848089901637D20C1002868FFF7E6FC7D
:1008D000411E70486A4DA9420AD86F4A51600168AA
:1008E000294003239B07C918016094600A9911608D
:1008F000016829400B9FFA070892891801600F21AF
:1009000008050B46316A81433162032188020A4699
:100910000A9131688143F8020818306018061D46B4
:100920000193316A81433162100331688143780356
:1009300008183060306A4E490840306230684949D2
:100940000840F9030143316001F09AFCF16840204E
:100950000143049B9943F160316A504A1140099A5E
:1009600011433162316820220A43102102918A43E7
:1009700032602903326A8A43390307915118316280
:100980003168194381433160454D2C603D48006812
:10099000444940183E49FFF781FCE8606C602346FB
:1009A000AF60019828622D242C603F4A5068FF21D7
:1009B000884350603D49039808603D48016818220B
:1009C0000A430260706A02990843E021884370621A
:1009D0000A9A900431688143F80408183060706AFC
:1009E0002E49084009990843706210053168814317
:1009F000780508183060454D1E462B60E12108023D
:100A0000204A126810184902FFF748FCE860324695
:100A10006E60AE602C60244B186819490840089934
:100A200040181860F8062149086022480168079BB1
:100A300019430160544C20482060204820600698EB
:100A4000606005981938A06020460C300A9901F0C2
:100A50009DFC4E4820600DB0F0BDC0460010024025
:100A600000040050FF3FFFFF040000208D2300081A
:100A7000FFFFFF0F0070004000200240020800301E
:100A8000FFFFFF00000000200100020001500000F5
:100A900040420F0020ED00E010E000E0FFF0FFFF1B
:100AA0000044004020A1070018E400E000E100E05D
:100AB0000000014008580140CCCC00005555000012
:100AC00070B518490F4A104B0478002C0FD0CD8810
:100AD0006D1C15400E89B54206D0CE889C55BFF3DB
:100AE0005F8FCD80401CEFE7486A401C4862EFF3FF
:100AF000108072B605490A68802313430B6080F3A7
:100B0000108870BDFF010000A805002000380140DA
:100B1000EFF3108172B6034A50780023537081F3CB
:100B20001088704704000020014800687047C046E4
:100B300024000040014800687047C046340A002085
:100B4000FFF716FD10B504460020C043002906D06B
:100B50001346002A03D00022204601F0ABFB10BD53
:100B600010B504460020C043002907D01346002AD0
:100B700004D00A460021204601F09CFB10BD000075
:100B8000014802490160704700300040AAAA0000F5
:100B9000FEB50190002A09D01546FA2A06D80F465C
:100BA0006818012100910902884208D92720000114
:100BB000019908180168491C01600020FEBDFF2052
:100BC0000A300199081802904920C0000E18002030
:100BD00082B295421CD9C31999B2082906D8591E68
:100BE00089B207290FD80DA3595C0DE03468002C99
:100BF000DCD0029B9B18281A82B2B068A04700285C
:100C00002846E5D0D2E70021029B9954401CDFE73B
:100C10000198294601F0EEF80098FEBD0200444D0F
:100C2000C80000014F21C9004018017B002902D0F3
:100C30000168491C0160002141810173704770B552
:100C40000523DB43002B0BD0D418C5186E89A67181
:100C5000360AE671ED8A25732D0A65739B1CF1E750
:100C60008069002393735173107370BDF0B5D5B0D4
:100C70001F461446059104900126310215A8054629
:100C8000FFF75DFA002C00D1E2E0002F00D1DFE099
:100C90000599FF2900D9DBE001263002401AA04265
:100CA00000D2D5E0029703949920840006A800F0B2
:100CB0001FF9059946291CD803984018392818D3DC
:100CC000654F78680C990191091A00D20021387893
:100CD000002800D1014606AE304600F0C5F80146B6
:100CE00015AA38323046FFF7AAFF01203870019864
:100CF000786004980019049028468E30EC350195F0
:100D00000521C943002917D015AA521806AB5B1854
:100D10005D8982269555DE8A882416551B8A8E2485
:100D200013552C0A83255455340A892554551B0A1A
:100D30008F241355891CE5E70C990170012242713B
:100D400006ABDA78C2705D7885702825434F7D5DEB
:100D500005711D786E1EB5419B785E1EB3415B0028
:100D60005B19551EAA4192009A18427015AE304682
:100D700094303B4DA8470D9930469830A8470E99BE
:100D800030469C30A847374CA04701463046A0303B
:100D9000A847A0470F99411A3046A430A847A0475A
:100DA0001099411A3046A830A84711993046AC3006
:100DB000A84712993046B030A84713993046B4304E
:100DC000A84714993046B830A84779683046BC30F7
:100DD000A847B9683046C030A847049CA16830468F
:100DE000C430A847E1683046C830A847216930467A
:100DF000CC30A84721683046D030A847F968304643
:100E0000D430A84761693046D830A847396A30469F
:100E1000DC30A847796A3046E030A8473969304667
:100E2000E430A847B9693046E830A8470220019964
:100E30000870A1693046F030A847F9693046F430AF
:100E4000A847059831180298039AFFF751F9002630
:100E5000304655B0F0BDC0463C00002010000020D8
:100E6000F9210008350B000810B50246008A00235E
:100E7000002805D1508A002802D1908A434243417C
:100E80001478604260411843D278072A05D80123BC
:100E90009340F424234200D0801C032A00D1001D7B
:100EA000042900D9083010BDB0B50C460521C90190
:100EB000425A4518A24206D90119121BFFF718F928
:100EC0002888001B00E000202880B0BD10B5282233
:100ED0005E4B00249C54DC621C71DC701C869C639D
:100EE0009C87D9600421597028339C70D87010BD3C
:100EF00010B500281BD00446544928313C22FFF786
:100F0000F7F8FFF717FE217800290BD0616A411A24
:100F1000632903D8A16A401A642808D30620E07028
:100F2000002020700020208160602061A08210BD20
:100F3000B0B50446454D284628303C21FFF7FFF860
:100F40000020686228620649A9610649E9610649EC
:100F50006961611EA9602870204601F007FAB0BDE2
:100F6000311E00081D0700084D1E0008F0B58BB0AB
:100F70000746364D2878012807D100202870286EB2
:100F8000401C2866384601F0F1F968787844007909
:100F9000400087440276385D2B00E868381A0A283A
:100FA00000D2A7E106AA0020107001210B4600F034
:100FB0004DFF002800D072E0284614302946293120
:100FC00000F012FA00286AD12920285C702800D08D
:100FD000BCE106AA0420107001263146334600F019
:100FE00035FF00285BD1EF606E7083E1E868381A46
:100FF000C0087D2800D27DE1286E401C2866384656
:1010000001F0B4F976E1A878122800D96EE1400029
:10101000784480884000874412002C010C01200194
:10102000FA003E014A012601620106015C01F4005A
:1010300000014401ED001001E10032015001284699
:101040001430012100F0B4F94EE1C0464400002004
:10105000A868B84200D14DE1AF6008A900240C8017
:101060002E461436304600F0A3FA002817D108A8FF
:1010700001880805800F23D0A86D401CA8650720B3
:1010800035E1E868381A1E2800D233E106AA0024A8
:10109000147001210B4600F0CBFE002801D0022085
:1010A00025E106A80078400703D4AC7002206870E0
:1010B00020E1E868381A642800D21BE1042016E118
:1010C00004940396A64801401029084600D3102036
:1010D0000126029701960446000400D11BE106A9EF
:1010E0000498887188800690039800F0BBF9002866
:1010F000D5D106A801781F20084001282DD013283B
:1011000010D0022867D1322038283BD006A9091810
:101110000A46313A12783039097809028918295279
:10112000801CF1E7049F3E46062E2FD006A88019AA
:10113000417882781002401809A988537C21114017
:101140007C2929D000F080FA0146FFF75CF8394687
:10115000FFF700F80746B61CE6E72C2032280BD034
:1011600006A909180A462B3A12782A390978090281
:1011700089182952801CF1E7EF64EE70686C401CFE
:10118000686428E0A86C401CA86424E038467549CF
:10119000FFF776F8002805D0E86D401CE865029F4F
:1011A000019E18E009A948880A9A02430998024357
:1011B000120402D0029F019E02E0019EF003029FF2
:1011C0000880284638300622FEF792FF2F652E71E0
:1011D000286C401C28642046601E7CE7284614309A
:1011E00009AE314600F028FB014600203278022A81
:1011F0002ED12EE02846143006AE314600F000FC19
:1012000021E028461430062100F0DEFA6CE0284682
:101210001430022100F02EFB66E028461430012134
:1012200000F0B8FB60E028461430032100F068FBB2
:101230005AE028461430002136E02846143006AE25
:10124000314600F033FA014600203278062A00D0F9
:10125000C043002948D0084646E028461430012102
:1012600000F0A6FC40E028461430062100F0C3F848
:101270003AE028461430012100F07EF834E0284698
:10128000143008AE314600F081FC0146002032786F
:10129000012ADDD1DDE728461430032100F0B0F942
:1012A00022E028461430062100F0C0F81CE0284651
:1012B0001430062100F0ACF916E02846143005AED3
:1012C000314600F047FB014600203278002ABFD0AB
:1012D000BFE728461430062100F020FC04E0284631
:1012E0001430012100F036F9002805D005203946D8
:1012F000FFF7ECFD0BB0F0BDA878401CA870C0B2A1
:101300001328F7D12A20012129542F610320687066
:10131000781EA860EEE7E878012819D1287900281E
:1013200016D0E86C381A632817D8286D381A642844
:1013300013D208A801880A4801400020112900D3CF
:10134000064628216E542835E870D3E70320CEE7FF
:101350002869381A04498842CCD30620C7E7C0461A
:10136000FF0100005C8F823FDC0500000148012185
:101370000170704744000020BCB50D46044601AA28
:101380000020107012210123204600F0AEFA002840
:1013900000D0BCBD01AA1078FB210140E807400F36
:1013A0000818107012210123204600F01DFBBCBD5F
:1013B000BCB50D46044601AA00201070122101237D
:1013C000204600F092FA002800D0BCBD01AA107897
:1013D000BF210140E807400E0818107012210123B8
:1013E000204600F001FBBCBD80B50A460F21012359
:1013F00000F07BFA80BDBCB50D46044601AA002072
:10140000107009210123204600F06FFA002800D057
:10141000BCBD01AA10780F210140280108181070E6
:1014200009210123204600F0DFFABCBDBCB50D4602
:10143000044601AA002010700A210123204600F072
:1014400054FA002800D0BCBD0720054001AA10783E
:10145000F8210140481910700A210123204600F0AC
:10146000C3FABCBD7CB50C466A46002191719180DF
:101470000091782107252B4600F037FA002800D08C
:101480007CBD21781F2291436A461278D3085B1EE7
:101490001D2B4AD87B441B795B009F440E2A2234C3
:1014A00036242C2E3A381A261E1430323F3D104670
:1014B00046204146121C1828164301232AE0132314
:1014C00031E019232FE00E2324E01D232BE01B2302
:1014D00029E00B231EE01A2325E00D231AE0162332
:1014E00021E0032316E0062314E00C2312E01C2362
:1014F00019E002230EE0294317E008230AE00F2336
:1015000008E010230FE0042304E0052302E00A238F
:1015100000E00923194308E0122304E0112302E04C
:10152000172300E01E2319432170019B23716B4692
:101530005D7865709D78A570DD78E5705D79657181
:101540009B79A3719F230B40110160220A409918D7
:1015500021707CBD7CB50D46044601A800210170B8
:101560000121204600F0A2F9064600281AD14421A4
:1015700001AA0123204600F0B8F90646002811D13F
:1015800001AA1078CD210140E80030230340E8078C
:10159000800F18184018107044210123204600F0D5
:1015A00023FA06460021204600F080F980197CBD10
:1015B000BCB50C4601AA002111801B21022300F0BA
:1015C00094F9002800D0BCBD01A90A784978CB075E
:1015D000DB0D9A1807235B0325881D400B09DB07E9
:1015E0009B0D5B198D09ED072D0D5B194D09ED075D
:1015F0006D0D5B19C9090903591889182180BCBDF3
:10160000E0B501AA11700721012300F0EDF98CBDAE
:10161000BCB50D46044601AA002010700921012323
:10162000204600F062F9002800D0BCBD0F20054024
:1016300001AA1078F02101404819107009210123F6
:10164000204600F0D1F9BCBD10B51F218B02024627
:101650001A40C10BC9079A4215D0002A19D1114A64
:1016600010401DD000231A465B1C40004405FAD5EB
:1016700080B240030C4B03400720C0060143D00555
:10168000081A184310BD40030143FF20C00508435A
:1016900010BD4004000940180721C906401810BDBC
:1016A000084610BDFF03000000C07F00F0B585B004
:1016B0000291054604AA0020107003AE019030701C
:1016C0001121012728463B4600F00FF9044662210C
:1016D000284632463B4600F008F9001900D071E078
:1016E00003A904AA13780F221A40531E0B2B029D44
:1016F000019E66D8097803263140C0467B441B7999
:101700005B009F440505131A0B22261E2E0F2A0785
:10171000164656E0022928D00C2627E0022929D0B7
:10172000052628E002292AD00A2629E0022900D12C
:101730002326012945D1132643E0022924D004267B
:1017400023E0022925D0082624E0022926D00626F7
:1017500025E0022927D0072626E0022928D00B26DB
:1017600027E0022929D0092628E02C26012928D1A2
:101770001C2626E02526012923D1152621E02A262C
:1017800001291ED11A261CE02426012919D114266C
:1017900017E02826012914D1182612E0262601294F
:1017A0000FD116260DE0272601290AD1172608E0B9
:1017B0002B26012905D11B2603E02926012900D16A
:1017C00019262E7005B0F0BD7CB50D46044601AA61
:1017D000002616706846067011210123204600F08D
:1017E00084F8002800D07CBD0F20284001AA117881
:1017F000F0230B401818107011210123204600F02F
:10180000F3F80028EFD12D093046ECD062216A466A
:101810000123204600F069F80028E4D103200540A8
:101820006A461078FC21014048191070622101239A
:10183000204600F0D9F87CBDBCB50C4601AA0025B5
:1018400015701521012300F050F8002800D0BCBD10
:1018500001A909780F220A40511E0B2902D8C9B2EA
:1018600001A2555C2570BCBD01020304000000000C
:101870000000000CBCB50D46044601AA0020107003
:1018800015210123204600F030F8002800D0BCBD0F
:101890000F20054001AA1078F0210140481910706E
:1018A00015210123204600F09FF8BCBDBCB50D46B4
:1018B000044601AA00201070012120460B4600F0CA
:1018C00014F8002800D0BCBD01AA10783F210140C7
:1018D0006801402303405818E901401810700121A5
:1018E00020460B4600F080F8BCBDB0B5002804D0FF
:1018F000C46845682046A847B0BD0020C043B0BDBD
:101900007CB50D46044601A8002101700121204646
:10191000FFF7CCFF002800D07CBD5E2101AA012387
:101920002046FFF7E2FF064600280DD101AA1078F5
:10193000C72101406807800E081810705E2101233E
:10194000204600F051F8064600212046FFF7AEFF82
:1019500080197CBD7CB50D46044601A800210170AC
:1019600001212046FFF7A2FF002800D07CBD042102
:1019700001AA01232046FFF7B8FF0646002803D13D
:1019800001988007C00F287000212046FFF78EFFC6
:1019900080197CBD7CB50D46044601A8002101706C
:1019A00001212046FFF782FF002800D07CBD0421E2
:1019B00001AA01232046FFF798FF064600280DD113
:1019C00001AA1078FD210140E807800F0818107067
:1019D00004210123204600F007F806460021204696
:1019E000FFF764FF80197CBDB0B5002804D0C4683F
:1019F00005682046A847B0BD0020C043B0BD000028
:101A0000F0B585B00291054604AA0020107003AE1F
:101A1000019030701021012728463B46FFF765FFF3
:101A200004466221284632463B46FFF75EFF001916
:101A300000D071E003A904AA13780F221A40531EA4
:101A40000B2B029D019E66D8097803263140C046C3
:101A50007B441B795B009F440505131A0B22261E4D
:101A60002E0F2A07164656E0022928D00C2627E01A
:101A7000022929D0052628E002292AD00A2629E0B1
:101A8000022900D12326012945D1132643E002294A
:101A900024D0042623E0022925D0082624E00229A8
:101AA00026D0062625E0022927D0072626E002298F
:101AB00028D00B2627E0022929D0092628E02C2649
:101AC000012928D11C2626E02526012923D1152607
:101AD00021E02A2601291ED11A261CE024260129EC
:101AE00019D1142617E02826012914D1182612E04E
:101AF000262601290FD116260DE0272601290AD115
:101B0000172608E02B26012905D11B2603E02926EC
:101B1000012900D119262E7005B0F0BD7CB50D4607
:101B2000044601AA0026167068460670102101239B
:101B30002046FFF7DAFE002800D07CBD0F202840A9
:101B400001AA1178F0230B401818107010210123FE
:101B50002046FFF749FF0028EFD12D093046ECD091
:101B600062216A4601232046FFF7BFFE0028E4D128
:101B7000032005406A461078FC2101404819107086
:101B8000622101232046FFF72FFF7CBD1CB50C46C8
:101B900001AA0021117017210123FFF7A6FE0028DA
:101BA00000D01CBD01A9097803220A4022701CBD87
:101BB000BCB50D46044601AA002010701721012370
:101BC0002046FFF792FE002800D0BCBD0320054050
:101BD00001AA1078FC210140481910701721012337
:101BE0002046FFF701FFBCBDE4B0FEF7A3FD5E4950
:101BF0005E4A5F4C2046234600F088FAFEF79AFFC3
:101C0000FFF796F95B48FEF75BFF5BA0FEF758FF16
:101C100000200F9001201090FEF770FD002809D0E1
:101C2000204600F0E1FA05E01AA80178199A20464A
:101C300000F028F91AA819A9FEF7A8FC0028F3D18A
:101C4000FEF772FF0146204600F072FA5120C000F4
:101C5000205C002801D0FEF773FF0520C001205A48
:101C600000286FD1A1208000205C00286AD1FEF7F7
:101C700061FFFFF77BF9FEF74BFF07463F2814D0C3
:101C80004C2F0BD0722F05D0682F0ED06C2F05D0A3
:101C9000522F0FD1FFF76AFB4EA009E001201099E7
:101CA0004140109103D048A002E0434800E043A027
:101CB000FEF706FF20200743732F46D1FEF73AFFB9
:101CC0000F9055AF3846FFF713F9FEF733FF189022
:101CD0000420385E17900620385E16900820385E83
:101CE00014909B20800025583878159078781390B0
:101CF000F87812903E8A7B8ABF8A3C4882685B985B
:101D00001190609961980D950C920B900A9109972A
:101D100008930796149806901698059017980490C3
:101D200011980390129802901398019015980090C2
:101D30001BAFE62138462E4A189B00F037FB384689
:101D4000FEF7BEFEFEF71CFF66E71098002807D0DE
:101D5000FEF7F0FE0F99401AC0087D28AED2F1E7D9
:101D600000201090EEE7C0466D0C00082B22000802
:101D7000A8070020D02800084C4F473D31313532AC
:101D8000303020384E313B203F3A68656C7020730C
:101D90003A737461747573206C3A746F67676C651D
:101DA000206C6F677320723A72657374617274206D
:101DB000494D550D0A000000192900086C6F677322
:101DC000206F66660D0A00006C6F6773206F6E0DE2
:101DD0000A000000494D55207265737461727420C9
:101DE0007265717565737465640D0A0010000020DA
:101DF0005029000870B50D460446412080000A496C
:101E00002152261800203071A81CF070C820B07034
:101E1000B01CE91C89B200F029F8A9194871A81D65
:101E20000249605270BDC046FFFF00008202000000
:101E300080B5084611461A46FEF784FE002803D0F6
:101E400009494A6D521C4A6580BDC04680B50846A6
:101E500011461A46FEF784FE002803D002494A6D57
:101E6000521C4A6580BDC046440000200022002963
:101E700004D003789A18401C491EF8E7FF209043CD
:101E800070470000F0B589B00C46054695208000EB
:101E90002E189D20800028180890808900280CD0DA
:101EA0003168511AFF23F633994207D30020089B6B
:101EB00098811968491C196000E000200899097C84
:101EC0000129059607D128461646FEF7ABFE324695
:101ED000059E08988089726032608108412903D389
:101EE000F069401CF06100202C54401C0899888146
:101EF0004121C90069180291E91D03910192323212
:101F00000092691C0691A91C079182B200218A42A5
:101F10000BD06C5C4B1CFF2C05D1934206D26C1885
:101F20006478FF2C02D01946F1E7014689B22846B1
:101F3000FEF7BAFF08988689042E00D2E2E00798DF
:101F40000778FF2F4BD0EC78022C04D20599C86992
:101F5000401CC86143E0201D864200D2D2E00490BC
:101F6000611C0798FFF782FF6119C978884232D156
:101F700005990869401C08612E790898007C0228A0
:101F80000CD10898C07C801CC0B2A04206D10B2E98
:101F90003BD80120B0405C49084236D02846FEF7C5
:101FA00041FEFE2F01D0C82F56D1A01E711E0A2956
:101FB0001FD8C0467944097949008F44053521214D
:101FC00005051E4105050500C82F45D12846019984
:101FD00000F01CF940E005998869401C8861721E78
:101FE00028460699FEF784F808998889401E88815A
:101FF0008BE7822E28D0832E2ED0C82F28D02BE01E
:10200000C82F29D10128E1D822E0304682380228A1
:10201000C4D30898407C00218842BFD0029A525C09
:10202000BA4235D0491CF7E7C82F15D102280FD185
:10203000AA7969792846FEF7ABFD002832D10BE07A
:1020400001200899087507E0C82F05D003280AD297
:102050000599C869401CC86128460499FEF724FF09
:102060000898808951E7201F80B20021814220D04A
:10207000039A525C53087E2BEAD80023994205D07C
:10208000039CE45C5B1CA242F8D1E1E7491CEDE74C
:10209000089A927CC9B28A4202D84A1C08998A746A
:1020A0008242D9D300980599C86001200899087424
:1020B000D2E70024A042CFD02919C979C82901D07C
:1020C000641CF7E7A1B28842C6D03F29C0D8AA79DC
:1020D00069792846FEF75CFD0028BDD02004E1D0D8
:1020E000029803992246FEF703F8002008998874A5
:1020F0004C740198059A9060506002200874A87989
:10210000C874A9E709B0F0BD7E0F0000F8B51C4601
:1021100015460E460746A32081003846FEF70FF805
:102120004920C0003E50381884604560F8BD00006A
:1021300070B59322920084189D22920083189D8985
:102140000122002D0CD0A5684D1BFF26F636B542A6
:1021500005D300259D811D686D1C1D6000E00022D7
:102160001D7C012D1DD0022D35D125694D1B1C4E26
:10217000B54231D2002A2ED0E5684D1BED087D2DE9
:1021800029D3E1609D686D1C9D609D7C6D1C9D74D4
:102190005E7CEDB2B5421ED3616101251D740D4612
:1021A00000E06569491B16D40E4DA94201D30021F8
:1021B00000E0012111420FD0DA890021D981197480
:1021C0002368002B07D04121890041186068984797
:1021D000E069401CE06170BDFEF724FD70BDC046A3
:1021E000A8610000D107000080B50521C9010022C7
:1021F0004252FEF717FD80BD0022202A05D00B4673
:10220000D3400370401C0832F7E77047B0B50C4666
:1022100005460021FFF7EEFD1320400132342C501B
:10222000A120800001212954B0BD10B50446084604
:102230001146FEF7C9F9002804D04F20C0002158EC
:10224000491C215010BD0000B0B5454A1468454BEB
:102250001D68AD0704D415682D1B642DF8D907E05F
:1022600018711868C00706D11068001B6428F8D9D7
:102270000020C043B0BD187908700020B0BDC04632
:102280000120000308490A6802430A600A68824381
:102290000A60064806490160172109024160016889
:1022A00040220A4302607047301002400030014073
:1022B00027030000FEB51C4601920E462749102256
:1022C00000920A61711E32468A41D1017F2202408A
:1022D0008818BFF34F8F02A9FFF7B6FF002500282B
:1022E00001D1074619E0EF4317E0A54217D20027B6
:1022F000002E384601D10198405D02A9FFF7A4FFE6
:10230000002801D1074600E0FF43002E04D000283A
:1023100002D10298705500276D1C002FE5D010489F
:102320000168104A13681B0609D503685B1A652B00
:10233000F8D30A48009901600020C74304E0074829
:1023400000990160002F07D00748016A491C01620B
:10235000FFF796FF3846FEBD0027FBE71800005048
:1023600024000040083001400400002006490022FB
:10237000CA620A710A868A638A874A80C8604A707C
:1023800001200006886270474400002010B5064B0B
:1023900004680C40944204D05B1CF9D30020C04375
:1023A00010BD002010BDC046807BE1FF0FB47CB59E
:1023B0000C0009AD01D0611E00E0002101910090E8
:1023C000074B6A462946089800F01CF8002C02D0FA
:1023D000009A002111707CBC08BC04B018470000B2
:1023E0007928000802E008C8121F08C1002AFAD1A3
:1023F00070477047002001E001C1121F002AFBD185
:1024000070470000FFB591B00F460546002606E074
:1024100025280AD0149A139990476D1C761C2878A9
:102420000028F5D1304615B0F0BD002400940121FC
:10243000F34A029400E004436D1C2B780846203BCD
:1024400098401042F7D128782A280ED00221287807
:102450000246303A092A15D8009A0A235A43303ADC
:1024600080180C436D1C0090F1E701CF009000280C
:1024700005DA012040030443009840420090022006
:1024800004436D1C28782E2815D104200443687855
:102490006D1C2A280AD101CF6D1C02900BE0029915
:1024A0000A225143303940186D1C029028780146A9
:1024B00030390929F3D928786C2810D006DC4C284B
:1024C0001AD068280ED06A2817D104E0742813D0D7
:1024D0007A2812D110E00120400504430CE00121CC
:1024E000090501E0032109050C436978814203D104
:1024F0000120000524186D1C6D1C287803906E289F
:102500001ED00CDC632831D004DC00288AD0582887
:1025100011D1B2E064287BD069280CD178E073280F
:102520002DD004DC6F2870D0702804D1A7E0752866
:102530006CD078286BD0149A13999047761C62E07F
:102540006002400F022807D003280AD00428386808
:102550000AD006603F1D56E03868F11706604160FA
:10256000F8E738680680F5E70670F3E738786946DB
:1025700008740020487404A80390012003E0386820
:1025800003900020C0433F1D61070FD5002101E0EB
:102590000199491C029A0191914213DA8142F7DBB9
:1025A000019A0399895C0029F2D10BE0002101E036
:1025B0000199491C01918142FADB019A0399895CD6
:1025C0000029F5D101990098139A401A00902146EC
:1025D000149B00F03BF901998019461807E0039815
:1025E00003990078491C0391149A13999047019814
:1025F000401E0190401CF2D12146149B139A009872
:1026000000F014F986196D1C09E741E033E034E06D
:102610000A200021049005916002410F022905D093
:1026200001CFC2179446032905D007E0FF1DFF081C
:10263000FF0003CF06E000B2C2179446042902D17E
:1026400040B2C1178C4600226146944506DA0A461C
:102650000021404291418C462D2102E0210504D504
:102660002B216A461176012103E0E10701D02021E8
:10267000F7E7019154E00A200BE0102009E0102058
:10268000049000210420044308200591029003E0F7
:1026900008200021059104906002410F022905D015
:1026A00001CF00229446032906D006E0FF1DFF0853
:1026B000FF0003CF8C4603E080B2042900D1C0B2F2
:1026C0000021019121072BD50399702906D0049A86
:1026D0001021059B4A401A4305D00EE040216A466E
:1026E0001176012108E06146014306D030216A4697
:1026F00011760399517602210191049A0821059BD4
:102700004A401A430CD16146014301D1610707D504
:1027100030216A461176012101910299491E0291E8
:102720000399582904D037A103910FA90F910DE007
:1027300039A1F9E76146059B049AFDF7CEFD039B9D
:102740008C469B5C0F9A521E0F9213706146014398
:10275000F0D10F9807A9081A20300390600704D51C
:10276000012000048443029801E0012002900399B3
:10277000884201DD401A00E00020411802900198D3
:1027800009180098401A0090E00306D42146149BD3
:10279000139A009800F05AF886190020049008E077
:1027A00006A9085C149A139990470498401C761C5B
:1027B000049001998842F3DBE0030CD52146149B79
:1027C000139A009800F042F8861904E0149A302019
:1027D00013999047761C0299481E02900029F5DC57
:1027E00008E00F980F990078491C0F91149A1399DB
:1027F0009047761C0399481E03900029F1DCFBE604
:1028000009280100303132333435363738396162C6
:10281000636465660000000030313233343536378A
:10282000383941424344454600000000F8B50446AB
:1028300000251E461746880404D405E039462020AA
:10284000B0476D1C641EF9D52846F8BDFFB5044697
:10285000002581B01E46C80301D5302700E020279F
:10286000880404D505E038460399B0476D1C641E02
:10287000F9D5284605B0F0BD4A68002A06D00A6896
:10288000531C0B6010704868401E48607047000081
:102890000000000000000000000000000000000038
:1028A0000000000000000000000000000000000028
:1028B000010000000200000003000000040000000E
:1028C00006000000070000000800000009000000EA
:1028D0000D0A696D755F746F5F64786C20302E32FD
:1028E0002E30207C2053544D33324730333146381C
:1028F000207C20466565746563682049443D32301C
:1029000030203130303030303020384E3120626C61
:102910006F636B4035360D0A00733D7374617475D7
:10292000732C206C3D746F67676C652070657269ED
:102930006F646963206C6F67732C20723D726569E8
:102940006E697469616C697A6520494D550D0A009C
:10295000743D256C752072656164793D257520692B
:10296000643D307825303258206572723D257520DF
:102970006E3D256C75206779726F3D25642C25644A
:102980002C2564207131363D253034582C253034C7
:10299000582C25303458207370696572723D256C4F
:1029A00075206669666F3D256C7520756172743D92
:1029B000256C75206372633D256C750D0A0000005F
:1029C000E02900080000002004000000E4230008C3
:1029D000E429000804000020340A0000F423000861
:0429E0000024F400DB
:04000005080000D51A
:00000001FF
